:100000000C9434000C9449000C9449000C94490061
:100010000C9449000C9449000C9449000C9449003C
:100020000C9449000C9449000C9449000C9449002C
:100030000C9449000C9449000C9449000C9449001C
:100040000C9449000C9449000C9449000C9449000C
:100050000C9449000C9449000C9449000C944900FC
:100060000C9449000C94490011241FBECFEFD8E036
:10007000DEBFCDBF11E0A0E0B1E0E0E2F1E002C000
:1000800005900D92A630B107D9F70E945E000C943E
:100090008E000C9400008FEF8AB91BB81092C1003B
:1000A00084B18F7D84B985B1806285B90895E82FC8
:1000B000F0E0E050FF4F80818BB908950E944B0023
:1000C0001D99FECF2FEF80E792E0215080409040B5
:1000D000E1F700C000001D99F3CF0EC08C2F0E94E5
:1000E00057002FEF83ED90E3215080409040E1F7DF
:1000F00000C00000219702C0C5E0D0E0DD2374F706
:100100001BB809C02FEF80E792E02150804090405B
:10011000E1F700C000001D9BF5CFD2CFF894FFCFD0
:060120003F065B4F666D17
:00000001FF
